:020000040800F2
:1000000010120020B5010008251400082D1000086A
:10001000C1010008C3010008C5010008000000007C
:10002000000000000000000000000000BD140008F7
:10003000C901000800000000B914000815150008E7
:10004000CF010008CF010008CF010008CF01000850
:10005000CF010008CF010008CF010008CF01000840
:10006000CF010008CF010008CF010008CF01000830
:10007000CF010008CF010008CF010008CF01000820
:10008000CF010008CF010008CF010008CF01000810
:10009000CF010008CF010008CF010008CF01000800
:1000A000CF010008CF010008CF010008CF010008F0
:1000B000CF010008091600083D160008CF0100080E
:1000C000CF010008CF010008CF010008CF010008D0
:1000D000CF0100084D1B0008D11C0008551E000868
:1000E000CF010008CF010008CF010008CF010008B0
:1000F000CF010008CF010008CF010008CF010008A0
:10010000CF010008CF01000871160008CF010008D8
:1001100085180008E9190008CF010008CF01000880
:10012000CF010008CF010008CF010008CF0100086F
:10013000000000000000000000000000CF010008E7
:10014000CF010008CF010008CF0100080000000027
:1001500000000000CF010008CF010008CF01000817
:10016000CF010008CF0100080000000000000000DF
:10017000CF010008CF0100080000000000000000CF
:100180000000000000000000CF010008CF010008BF
:10019000B91F0008CF010008CF01000800000000CF
:1001A000DFF80CD000F0C4FA004800475D270008D3
:1001B000101200200648804706480047FEE7FEE789
:1001C000FEE7FEE7FEE7FEE7FEE7FEE7FEE7FEE707
:1001D0001D150008A10100082DE9FE4F804681EAA7
:1001E0000300C00F0C46009021F0004123F00045B1
:1001F000B8EB0200A94105D24046214690461C4674
:100200000B46024623F00040104347D0270DC7F3AA
:100210000A00C3F30A510290401A019040286BDA99
:10022000C3F3130040F4801B0098924620B10023D2
:10023000D2EB030A63EB0B0B01985946C0F1400265
:10024000504600F0B0F906460D4650465946019A10
:1002500000F0C8F910EB08006141002487EA115250
:1002600084EAE7731A4340D0009A62B3019A012AE4
:100270004FEA075215DC001B61EB02014FF0004210
:1002800002EA0752CDE90042001C41F580113246D6
:100290002B4600F0FFF903B0BDE8F08F4046214641
:1002A000F9E7001B61EB0201001C41F58013001807
:1002B0005B412018A2F5001747EB030140EAD57017
:1002C000B6196D4111E06D084FEA360645EAC07572
:1002D0004FEA0752001B61EB0201001C41F580113F
:1002E00049084FEA30000019514132462B4603B00D
:1002F000BDE8F04F00F0BFB9009801224000002394
:10030000D0EB020263EBE073009821464FEAE07401
:10031000B8EB000061EB0401E9E783F000435BE721
:1003200081F0004158E72DE9FE4F81EA030404F013
:10033000004421F0004100944FF0000B23F00043F3
:1003400050EA01045ED052EA03045BD0C3F30A54BE
:10035000C1F30A552C44A4F2F3340194A0FB0254D7
:10036000C1F3130141F48011C3F3130343F4801369
:1003700001FB024400FB034E840A970A44EA8154BD
:1003800047EA8357A4FB076802958D0A05FB07859A
:100390004FEA932C04FB0C542705029D4FEA0658A4
:1003A00047EA1637B5EB08056EEB070C870E920E81
:1003B00047EA811742EA8312A7FB0201B6EB0B0161
:1003C00064EB00042B0D43EA0C335E1844EB1C5025
:1003D000DA465146E7FB0201C5F313044FEA0B333B
:1003E00043EA14534FEA0432019C43EA0603A4F1A2
:1003F0000C040294009CCDE900B400F04BF903B06A
:10040000BDE8F08F00200146F9E72DE9F04D81EAC3
:10041000030404F0004B21F0004514464FF0000A9D
:1004200023F0004150EA050220D054EA01021DD019
:10043000C5F30A570246C5F31303C1F31300C1F312
:100440000A5640F4801543F48013A7EB0608101BEE
:10045000D64608F2FD3873EB050002D308F1010817
:1004600001E092185B41B8F1000F03DA0020014669
:10047000BDE8F08D00204FF48011064684460EE062
:10048000171B73EB050705D3121B63EB050306432C
:100490004CEA010C49084FEA300092185B4150EADF
:1004A0000107EDD152EA030012D082EA040083EA88
:1004B0000501084305D0101BAB4106D201220023E1
:1004C00006E000224FF0004302E06FF001025310FB
:1004D0001AEB06004CEB085110EB0A0041EB0B0144
:1004E000BDE8F04D00F0C7B80EB5C10F80EAE0706E
:1004F0000844CA07002140F233438DE80E000A4643
:100500000B4600F0C7F803B000BD70B5C1F30A5246
:1005100001F000450024C1F3130140F2FF3341F420
:1005200080119A4201DA002070BD40F233439A42B2
:10053000A2F2334203DC524200F044F800E0904063
:100540002C43F1D0404270BD00F0004230F000403A
:100550000AD0C10D01F56071C0F3160042EA0151E5
:10056000C20840071143704700200146704701F060
:10057000004330B421F0004150EA010206D00A0DD8
:10058000A2F56072C1F31301002A02DC30BC002026
:100590007047440F44EAC104C100E01830BC00EBCE
:1005A000C25000F031B8202A04DB203A00FA02F1F0
:1005B000002070479140C2F1200320FA03F3194351
:1005C00090407047202A04DB203A21FA02F00021F3
:1005D000704721FA02F3D040C2F120029140084353
:1005E00019467047202A06DBCB17203A41FA02F061
:1005F00043EAE07306E041FA02F3D040C2F1200280
:1006000091400843194670470029A8BF7047401C15
:10061000490008BF20F00100704710B4B0FA80FC18
:1006200000FA0CF050EA010404BF10BC704749B155
:10063000CCF1200421FA04F411FA0CF118BF0121C5
:1006400021430843A3EB0C01CB1D4FEA00614FEAA5
:10065000102042BF002010BC704700EBC350104474
:100660000029A4BF10BC7047401C490008BF20F0FF
:10067000010010BC704710B5141E73F1000408DAB5
:10068000401C41F1000192185B411A4301D120F056
:10069000010010BD2DE9F04D92469B4611B1B1FA13
:1006A00081F202E0B0FA80F220329046FFF77BFF41
:1006B00004460F4640EA0A0041EA0B0153465A46F7
:1006C000084313D0114653EA010019D0C8F1400283
:1006D0005046FFF777FF05460E46504659464246BC
:1006E000FFF761FF084305D0012004E020463946AA
:1006F000BDE8F08D0020054346EAE0762C43374301
:100700000A986305E40AA0EB08000022FD0A44EA07
:1007100047540A3002D500200146E9E701051019C7
:100720006941DDE9084500196941BDE8F04DA2E7DE
:10073000064C074D06E0E06840F0010394E807002E
:1007400098471034AC42F6D3FFF72EFD2C44000836
:100750004C44000870B58D1810F8014B14F00302DA
:1007600001D110F8012B231106D110F8013B03E051
:1007700010F8016B01F8016B521EF9D1ABB110F802
:10078000012B04F00C048A1A0C2C03D0A2EB841267
:100790009B1C08E010F8014BA2EB0422F8E712F8CA
:1007A000014B01F8014B5B1EF9D5A942D4D30020BF
:1007B00070BD000000000000B0B584B00A460346DA
:1007C0008DF80F008DF80E109DF80E0003308DF897
:1007D0000C009DF80F0040F2DD71C2F2000101EB48
:1007E00000209DF80CC00CF1010E8DF80CE010F803
:1007F0000C0040F2487CC2F2000C8CF838009DF8E6
:100800000F0001EB00209DF80CE00EF101048DF8C3
:100810000C4010F80E008CF839009DF80F0001EB29
:1008200000209DF80CE00EF101048DF80C4010F84A
:100830000E008CF83C009DF80F0001EB00209DF8A5
:100840000CE00EF101048DF80C4010F80E008CF84D
:100850003D009DF80F0001EB00209DF80CE00EF12B
:1008600001048DF80C4010F80E008CF840009DF843
:100870000F0001EB00209DF80CE00EF101048DF853
:100880000C4010F80E008CF841009DF80C000E3062
:100890008DF80C009DF80F0001EB00209DF80CE096
:1008A0000EF101048DF80C4010F80E008CF83A009F
:1008B0009DF80F0001EB00209DF80CE00EF1010403
:1008C0008DF80C4010F80E008CF83B009DF80F00DE
:1008D00001EB00209DF80CE00EF101048DF80C40B6
:1008E00010F80E008CF83E009DF80F0001EB002080
:1008F0009DF80CE00EF101048DF80C4010F80E008C
:100900008CF83F009DF80F0001EB00209DF80CE0F3
:100910000EF101048DF80C4010F80E008CF8420026
:100920009DF80F0001EB00209DF80C1001F1010E65
:100930008DF80CE0405C8CF843009CF83C009CF87F
:100940003D109CF83EE09CF83F4041EA002044EA1C
:100950000E214FF0640E00FB0E10ACF844009CF822
:1009600040009CF841109CF842409CF8435041EAFA
:10097000002045EA042100FB0E10ACF84600BCF94B
:1009800044004EF69001CFF6FF7188420BDBFFE783
:1009900040F24870C2F20000B0F9440041F27171B7
:1009A000884208DBFFE740F24870C2F200000021F5
:1009B000A0F84410FFE740F24870C2F20000B0F91E
:1009C00046004EF69001CFF6FF7188420BDBFFE741
:1009D00040F24870C2F20000B0F9460041F2717175
:1009E000884208DBFFE740F24870C2F200000021B5
:1009F000A0F84610FFE740F24870C2F20000B0F8DD
:100A00004410B0F84620891AA0F84810018F090454
:100A100009BA4CF6CD42CCF6CC42A1FB0212D20868
:100A2000A0F84A20B0F94820029010460191FFF743
:100A30005BFD41EC100B9FED6A1B53EC112B51EC4D
:100A4000100BFFF7E2FC41EC100B51EC100BFFF721
:100A50008EFD0299086091F8450040F2B872C2F22A
:100A60000002107091F84400507091F847009070A7
:100A700091F84600D07091F84900107191F8480043
:100A8000507191F84B00907191F84A00D071B1F912
:100A90004A00B1F94E20904242DBFFE740F2487035
:100AA000C2F20000B0F94E00002839D0FFE740F252
:100AB0004870C2F20000B0F948000A2830DBFFE7B6
:100AC00040F24870C2F20000B0F94810B0F950008E
:100AD000814225DCFFE740F24870C2F20000B0F925
:100AE000500000281CD0FFE740F24870C2F200001E
:100AF00090F85200012813D1FFE740F2B870C2F21B
:100B000000000121C17640F24870C2F20000B0F846
:100B10004C1000EE101AB8EE400A80ED030A06E011
:100B200040F2B870C2F200000021C176FFE740F247
:100B30004870C2F20000B0F948001F2808DBFFE748
:100B400040F24870C2F20000012180F8521045E0E6
:100B500040F24870C2F20000B0F9480010F11F0FD7
:100B600008DCFFE740F24870C2F20000022180F882
:100B7000521032E040F24870C2F20000002180F8CA
:100B80005210B0F9440010F1090F25DBFFE740F2E5
:100B90004870C2F20000B0F9440009281CDCFFE7ED
:100BA00040F24870C2F20000B0F9460010F1090F9F
:100BB00012DBFFE740F24870C2F20000B0F94600D5
:100BC000092809DCFFE740F24870C2F2000000216A
:100BD000A0F848100160FFE7FFE7FFE704B0B0BDF1
:100BE000000000000000594080B59AB00A46034654
:100BF0008DF867008DF866109DF8660013308DF84B
:100C0000640000208DF86500FFE79DF865005F280F
:100C10003BDCFFE79DF8670040F2DD71C2F20001A6
:100C200001EB00209DF86410405C3A280EDBFFE7E2
:100C30009DF8670040F2DD71C2F2000101EB002077
:100C40009DF86410405C373800900DE09DF8670017
:100C500040F2DD71C2F2000101EB00209DF864104A
:100C6000405C30380090FFE700989DF8651001AABD
:100C700050549DF8640001308DF86400FFE79DF842
:100C8000650001308DF86500BFE700208DF8640035
:100C90008DF86500FFE79DF86500072823DCFFE776
:100CA0009DF8640001A90A18085C00035178937844
:100CB000D27840EA012040EA031010439DF8651005
:100CC00040F24872C2F2000202EB4101C8839DF873
:100CD000640004308DF86400FFE79DF86500013082
:100CE0008DF86500D7E79DF8640016308DF8640034
:100CF0009DF8640001A90A18085C0003537892F873
:100D000002C0D27840EA032040EA0C101043A0F65B
:100D1000AB2040F24872C2F2000210869DF86400D7
:100D200004308DF864009DF864000B18085C000323
:100D300093F801C093F802E0DB7840EA0C2040EA27
:100D40000E10184390809DF8640004308DF8640004
:100D50009DF864000B18085C000393F801C093F839
:100D600002E0DB7840EA0C2040EA0E101843D08005
:100D70009DF8640004308DF864009DF864000B1841
:100D8000085C000393F801C093F802E0DB7840EAC6
:100D90000C2040EA0E10184310819DF864000630C4
:100DA0008DF864009DF864000B18085C000393F84C
:100DB00001C093F802E0DB7840EA0C2040EA0E1014
:100DC000184310829DF8640004308DF864009DF88B
:100DD00064000B18085C000393F801C093F802E06C
:100DE000DB7840EA0C2040EA0E10184390829DF810
:100DF000640004308DF864009DF864000B18085CF2
:100E0000000393F801C093F802E0DB7840EA0C207D
:100E100040EA0E101843D0829DF8640004308DF82B
:100E200064009DF864000B18085C000393F801C08F
:100E300093F802E0DB7840EA0C2040EA0E101843F9
:100E400010839DF8640004308DF864009DF8640000
:100E50000B18085C000393F801C093F802E0DB78FC
:100E600040EA0C2040EA0E10184350839DF86400BD
:100E700004308DF864009DF864000B18085C0003D2
:100E8000597893F802C0DB7840EA012040EA0C1060
:100E90001843908392F8310040F2B871C2F2000119
:100EA000087292F830004872507C8872107CC872C8
:100EB000507A8873107AC873507D8874107DC87416
:100EC000507F0877107F48771AB080BD80B586B014
:100ED00003468DF8170004910392002002909DF8BC
:100EE000170040F20C01C2F2000151F8200047F255
:100EF0000001C4F20101884244D1FFE700200290C2
:100F0000FFE70298039988423BD2FFE7FFE79DF88D
:100F1000170040F20C01C2F2000151F8200040F22B
:100F2000077102F0F7FE01210028019111D0FFE7BF
:100F30009DF8170040F20C01C2F2000151F82000A8
:100F400040F2067102F0E6FEB0FA80F0400901902E
:100F5000FFE70198C007002801D0FFE7D7E79DF819
:100F6000170040F20C01C2F2000151F82000049970
:100F7000029A895C03F046F8FFE70298013002907C
:100F8000BFE751E000200290FFE7029803998842F2
:100F900039D2FFE7FFE79DF8170040F20C01C2F2DB
:100FA000000151F82000072103F0D0F801210028AA
:100FB000009110D0FFE79DF8170040F20C01C2F23B
:100FC000000151F82000062103F0C0F8B0FA80F0CB
:100FD00040090090FFE70098C007002801D0FFE714
:100FE000D9E79DF8170040F20C01C2F2000151F858
:100FF00020000499029A895C03F004F8FFE7029844
:1010000001300290C1E7FFE79DF8170040F20C01A4
:10101000C2F2000151F82000062103F097F80028E1
:1010200001D1FFE7F0E7FFE706B080BDFFE7FEE78D
:1010300080B588B0079040F24870C2F20000408A44
:10104000B0F57A7F0CD1FFE740F24870C2F20000A1
:1010500090ED000AB5EE400AF1EE10FA14DCFFE75D
:1010600040F24870C2F20000408A00280DD1FFE72C
:1010700040F24870C2F2000090ED000AB5EE400A5E
:10108000F1EE10FA01DAFFE77EE040F24870C2F2BA
:10109000000090ED000A9DED071AB8EE411A20EE0F
:1010A000010A10EE101A05900846FFF74DFA41ECC0
:1010B000120B51EC120B9FED362B53EC122BFFF75A
:1010C000A4F941EC120B0598C0688DED022BFFF7D7
:1010D0003BFA41EC120B9DED023B53EC132B51EC10
:1010E000120BFFF779F841EC120B51EC120BFFF7E2
:1010F0003EFA0599C86091ED030A9FED291A20EE8A
:10110000010AB1F84C0001EE100AB8EEC11A80EEE7
:10111000010A10EE100AFFF717FA41EC120B51EC1E
:10112000120B9FED1D2B53EC122B01920093FFF736
:1011300053F841EC120B51EC120BFFF7E6F905994D
:101140004882C868FFF700FA41EC120B51EC120B11
:10115000019A009BFFF740F841EC120B51EC120B87
:10116000FFF7D3F9ADF81A009DF81B0040F2B871F3
:10117000C2F2000108739DF81A0048730598C27CFA
:101180000A74827C4A74FFE708B080BD00BF00BFCC
:101190000000000000004240000000000000E03FAE
:1011A00000007A440000000080B588B040F2A470CE
:1011B000C2F2000000210A22059102F065F80598AC
:1011C0008DF81F00FFE79DF81F00052814DCFFE7DE
:1011D0009DF81F0040F2A471C2F20001095C40F2C8
:1011E000B872C2F2000210440175FFE79DF81F00BB
:1011F00001308DF81F00E6E740F2B870C2F200003F
:10120000017D427D42EA012140F24872C2F20002B1
:10121000A2F84C10817DC37D43EA0121A2F84E1053
:10122000017E407E40EA0120A2F85000B2F84C0056
:10123000002809D1FFE740F24870C2F2000042F2F4
:101240001071A0F84C10FFE740F24870C2F20000A5
:10125000B0F94E00002809D1FFE740F24870C2F211
:1012600000004FF42F61A0F84E10FFE740F24870E5
:10127000C2F20000B0F95000002808D1FFE740F2A8
:101280004870C2F200001421A0F85010FFE740F2AD
:10129000A470C2F20000017A427A61F30F224CF688
:1012A000CD41CCF6CC41A2FB0112D208ADF81C20F6
:1012B0008279C07940EA0220ADF81A00BDF81C001E
:1012C00040F24872C2F20002B2F84A20049111467C
:1012D00001F04EFD042808DCFFE7BDF81A0040F2DB
:1012E0004871C2F20001488253E040F24870C2F2F5
:1012F0000000B0F94A1003900846FFF7F5F841ECFA
:10130000100B039800688DED000BFFF71DF941EC01
:10131000100B9FED3F1B53EC112B51EC100BFFF703
:1013200002F841EC100B53EC102B9DED000B51EC2F
:10133000100BFEF751FF41EC100B51EC100B9FED21
:10134000360B53EC102BFEF747FF41EC100B51EC22
:10135000100BFFF7DAF800F067F8ADF81800BDF8E9
:101360001A00BDF8181001F003FD312808DCFFE772
:10137000BDF81A0040F24871C2F20001488207E04D
:10138000BDF8180040F24871C2F200014882FFE740
:10139000FFE740F29C70C2F20000007801280ED1F5
:1013A000FFE740F24870C2F20000818A4182018961
:1013B00000EE101AB8EE400A80ED030A07E040F292
:1013C0004870C2F200004FF416714182FFE740F20C
:1013D0004870C2F2000047F23051A0F84C10418A28
:1013E00000EE101AB8EE400AB0F84C1001EE101AD8
:1013F000B8EEC11A20EE010A9FED091A80EE010A2B
:1014000080ED030A002180F8521008B080BD00BFB3
:1014100033333333333303C0000000000000E03FB8
:1014200000007A447047000082B00146ADF8060023
:101430000020ADF8020040F2A510ADF80000FFE773
:10144000BDF80200BDF8001008444008ADF80400E3
:10145000BDF80600BDF8041040F27802C2F20002A6
:1014600032F82110884205DDFFE7BDF80400ADF831
:10147000000004E0BDF80400ADF80200FFE7BDF88D
:101480000000BDF80210884208DDFFE7BDF800004B
:10149000BDF80210401A012801D1FFE700E0CFE7B4
:1014A000BDF8040040F27801C2F2000101EB8000B7
:1014B000408802B07047000070470000704700008D
:1014C00080B582B0009000980138B0F1807F03D3DE
:1014D000FFE70120019019E0009801384EF2140155
:1014E000CEF2000108604FF0FF300F2100F012FE35
:1014F0004EF21800CEF20000002101604EF2100002
:10150000CEF20000072202600191FFE7019802B0CD
:1015100080BD000080B500F033FE80BD80B582B094
:101520004EF68850CEF20000016841F4700101606F
:1015300041F20000C4F20200016841F001010160C3
:10154000FFE741F20000C4F20200006880070028B3
:1015500001D4FFE7F5E7FFE741F20400C4F202001F
:10156000016841F08001016000200190FFE70198CF
:10157000FF2805D8FFE7FFE7019801300190F6E763
:1015800041F20400C4F20200016841F090010160E0
:1015900000200190FFE70198FF2805D8FFE7FFE74B
:1015A000019801300190F6E7FFE741F20400C4F230
:1015B0000200016821F00301016041F20001C4F260
:1015C00002010A684FF6FF73CFF6F6631A400A600D
:1015D00041F20802C4F202024FF41F03136000221A
:1015E000026041F22C00C4F202000260086820F49C
:1015F00080200860009202F0B1F94FF0006000997D
:1016000001F080FC02B080BD80B540F20040C4F221
:101610000000012102F060FB00280DD0FFE740F63A
:101620000560C2F200000121017040F20040C4F2E6
:10163000000002F047FBFFE780BD000080B540F6E8
:101640000000C4F20000012102F046FB00280DD08A
:10165000FFE740F60460C2F200000121017040F68D
:101660000000C4F2000002F02DFBFFE780BD000087
:1016700080B582B040F60040C4F20000012102F0C3
:101680002BFB002843D0FFE700208DF80700FFE781
:101690009DF80700052832D8FFE79DF8070040F6BF
:1016A0000661C2F20001085C002821D0FFE79DF826
:1016B000070040F6FE51C2F200010A5C01320A54F2
:1016C0009DF80700085C082811DBFFE79DF807007C
:1016D00040F60661C2F2000100220A549DF807009C
:1016E00040F2D771C2F2000101220A54FFE7FFE77E
:1016F000FFE79DF8070001308DF80700C8E740F6C6
:101700000040C4F20000012102F0DCFAFFE702B061
:1017100080BD000080B58AB00A460346ADF82600B9
:10172000ADF8241040F201700492039301F038FDEB
:1017300040F20040C4F20000029002F031F9BDF81E
:10174000260001380790BDF824000138ADF81400D8
:101750000020ADF82000ADF81600ADF818008DF8A7
:10176000220005A9029802F01BFA1D200121019117
:10177000019A01F01FFB0298019902F0A3FA029866
:10178000019902F095FA029802F000FA0AB080BDC1
:1017900080B58AB00A460346ADF82600ADF824109D
:1017A00040F202700492039301F0FAFC40F600004C
:1017B000C4F20000029002F0F3F8BDF826000138F0
:1017C0000790BDF824000138ADF814000020ADF8F2
:1017D0002000ADF81600ADF818008DF8220005A91C
:1017E000029802F0DDF91E2001210191019A01F019
:1017F000E1FA0298019902F065FA0298019902F063
:1018000057FA0AB080BD000080B58AB00A46034688
:10181000ADF82600ADF8241040F203700492039353
:1018200001F0BEFC40F60040C4F20000029002F05D
:10183000B7F8BDF8260001380790BDF8240001383C
:10184000ADF814000020ADF82000ADF81600ADF89A
:1018500018008DF8220005A9029802F0A1F93220A3
:1018600001210191019A01F0A5FA0298019902F073
:1018700029FA0298019902F01BFA029802F086F9FF
:101880000AB080BD80B582B003208DF8070044F611
:101890000040C4F2000040F20531C0F2050102F040
:1018A0009BFC002848D0FFE744F60040C4F200004B
:1018B00002F08CFB9DF8071040F2DD72C2F20002CC
:1018C00002EB012240F6F853C2F2000313F801C004
:1018D0000CF1010E03F801E002F80C009DF807007E
:1018E00040F6E051C2F2000151F82020013241F8E7
:1018F00020209DF8070051F82000002811D0FFE7B4
:101900009DF8070040F60661C2F2000101220A5468
:101910009DF8070040F6FE51C2F2000100220A5471
:10192000FFE744F60040C4F2000040F20531C0F287
:10193000050102F041FCFFE744F60040C4F200005C
:1019400040F20531C0F2030102F046FC002848D005
:10195000FFE744F60040C4F2000002F037FB9DF8B8
:10196000071040F2DD72C2F2000202EB012240F6E3
:10197000F853C2F2000313F801C00CF1010E03F892
:1019800001E002F80C009DF8070040F6E051C2F2B9
:10199000000151F82020013241F820209DF8070075
:1019A00051F82000002811D0FFE79DF8070040F60D
:1019B0000661C2F2000101220A549DF8070040F6B8
:1019C000FE51C2F2000100220A54FFE744F6004033
:1019D000C4F2000040F20531C0F2030102F0ECFB5A
:1019E000FFE702B080BD000080B582B004208DF812
:1019F000070045F20000C4F2000040F20531C0F2D9
:101A0000050102F0E9FB002848D0FFE745F200009D
:101A1000C4F2000002F0DAFA9DF8071040F2DD721D
:101A2000C2F2000202EB012240F6F853C2F20003B8
:101A300013F801C00CF1010E03F801E002F80C00EC
:101A40009DF8070040F6E051C2F2000151F8202055
:101A5000013241F820209DF8070051F820000028AD
:101A600011D0FFE79DF8070040F60661C2F20001C1
:101A700001220A549DF8070040F6FE51C2F200010F
:101A800000220A54FFE745F20000C4F2000040F2D1
:101A90000531C0F2050102F08FFBFFE745F20000BF
:101AA000C4F2000040F20531C0F2030102F094FBE1
:101AB000002848D0FFE745F20000C4F2000002F021
:101AC00085FA9DF8071040F2DD72C2F2000202EBC7
:101AD000012240F6F853C2F2000313F801C00CF1E2
:101AE000010E03F801E002F80C009DF8070040F633
:101AF000E051C2F2000151F82020013241F82020CB
:101B00009DF8070051F82000002811D0FFE79DF84C
:101B1000070040F60661C2F2000101220A549DF856
:101B2000070040F6FE51C2F2000100220A54FFE70E
:101B300045F20000C4F2000040F20531C0F203019A
:101B400002F03AFBFFE702B080BD000080B582B032
:101B500000208DF8070043F60000C4F2010040F2B7
:101B60000531C0F2050102F037FB002850D0FFE735
:101B700043F60000C4F2010002F028FA9DF80710B5
:101B800040F2DD72C2F2000202EB012240F6F8538D
:101B9000C2F2000313F801C00CF1010E03F801E0DA
:101BA00002F80C009DF8070040F6E051C2F2000177
:101BB00051F82020013241F820209DF8070040F61E
:101BC000FE52C2F20002002313549DF8070051F8A0
:101BD0002000002811D0FFE79DF8070040F60661BD
:101BE000C2F2000101220A549DF8070040F6FE519E
:101BF000C2F2000100220A54FFE743F60000C4F2DB
:101C0000010040F20531C0F2050102F0D5FAFFE70C
:101C100043F60000C4F2010040F20531C0F20301B6
:101C200002F0DAFA002850D0FFE743F60000C4F2D1
:101C3000010002F0CBF99DF8071040F2DD72C2F20C
:101C4000000202EB012240F6F853C2F2000313F83F
:101C500001C00CF1010E03F801E002F80C009DF840
:101C6000070040F6E051C2F2000151F82020013295
:101C700041F820209DF8070040F6FE52C2F2000213
:101C8000002313549DF8070051F82000002811D0BC
:101C9000FFE79DF8070040F60661C2F2000101224D
:101CA0000A549DF8070040F6FE51C2F200010022DE
:101CB0000A54FFE743F60000C4F2010040F2053188
:101CC000C0F2050102F078FAFFE702B080BD000023
:101CD00080B582B001208DF8070044F20040C4F2C4
:101CE000000040F20531C0F2050102F075FA00284B
:101CF00050D0FFE744F20040C4F2000002F066F961
:101D00009DF8071040F2DD72C2F2000202EB0122E0
:101D100040F6F853C2F2000313F801C00CF1010EB3
:101D200003F801E002F80C009DF8070040F6E051CE
:101D3000C2F2000151F82020013241F820209DF824
:101D4000070040F6FE52C2F20002002313549DF831
:101D5000070051F82000002811D0FFE79DF8070088
:101D600040F60661C2F2000101220A549DF8070004
:101D700040F6FE51C2F2000100220A54FFE744F28D
:101D80000040C4F2000040F20531C0F2050102F04B
:101D900013FAFFE744F20040C4F2000040F20531BC
:101DA000C0F2030102F018FA002850D0FFE744F215
:101DB0000040C4F2000002F009F99DF8071040F25B
:101DC000DD72C2F2000202EB012240F6F853C2F2C9
:101DD000000313F801C00CF1010E03F801E002F852
:101DE0000C009DF8070040F6E051C2F2000151F8E6
:101DF0002020013241F820209DF8070040F6FE52D5
:101E0000C2F20002002313549DF8070051F820008D
:101E1000002811D0FFE79DF8070040F60661C2F2E6
:101E2000000101220A549DF8070040F6FE51C2F25B
:101E3000000100220A54FFE744F20040C4F200000F
:101E400040F20531C0F2030102F0B6F9FFE702B03B
:101E500080BD000080B582B002208DF8070044F6F6
:101E60000000C4F2000040F20531C0F2050102F0AA
:101E7000B3F9002848D0FFE744F60000C4F20000A0
:101E800002F0A4F89DF8071040F2DD72C2F20002E1
:101E900002EB012240F6F853C2F2000313F801C02E
:101EA0000CF1010E03F801E002F80C009DF80700A8
:101EB00040F6E051C2F2000151F82020013241F811
:101EC00020209DF8070051F82000002811D0FFE7DE
:101ED0009DF8070040F60661C2F2000101220A5493
:101EE0009DF8070040F6FE51C2F2000100220A549C
:101EF000FFE744F60000C4F2000040F20531C0F2F2
:101F0000050102F059F9FFE744F60000C4F20000B1
:101F100040F20531C0F2030102F05EF9002848D01A
:101F2000FFE744F60000C4F2000002F04FF89DF80D
:101F3000071040F2DD72C2F2000202EB012240F60D
:101F4000F853C2F2000313F801C00CF1010E03F8BC
:101F500001E002F80C009DF8070040F6E051C2F2E3
:101F6000000151F82020013241F820209DF807009F
:101F700051F82000002811D0FFE79DF8070040F637
:101F80000661C2F2000101220A549DF8070040F6E2
:101F9000FE51C2F2000100220A54FFE744F600009D
:101FA000C4F2000040F20531C0F2030102F004F96E
:101FB000FFE702B080BD000080B582B005208DF83B
:101FC000070047F20000C4F201000521C0F20571CC
:101FD00001F0F6FE002847D0FFE747F20000C4F208
:101FE000010001F0F3FF9DF8071040F2DD72C2F22C
:101FF000000202EB012240F6F853C2F2000313F88C
:1020000001C00CF1010E03F801E002F80C009DF88C
:10201000070040F6E051C2F2000151F820200132E1
:1020200041F820209DF8070051F82000002811D029
:10203000FFE79DF8070040F60661C2F200010122A9
:102040000A549DF8070040F6FE51C2F2000100223A
:102050000A54FFE747F20000C4F201000521C0F274
:10206000057101F08DFEFFE747F20000C4F20100A8
:102070000521C0F2037101F0A3FE002847D0FFE75D
:1020800047F20000C4F2010001F0A0FF9DF8071024
:1020900040F2DD72C2F2000202EB012240F6F85378
:1020A000C2F2000313F801C00CF1010E03F801E0C5
:1020B00002F80C009DF8070040F6E051C2F2000162
:1020C00051F82020013241F820209DF8070051F8F6
:1020D0002000002811D0FFE79DF8070040F60661B8
:1020E000C2F2000101220A549DF8070040F6FE5199
:1020F000C2F2000100220A54FFE747F20000C4F2D6
:1021000001000521C0F2037101F03AFEFFE702B0C1
:1021100080BD000082B002468DF8070000919DF955
:10212000070000280AD4FFE7009800019DF9071076
:102130004EF20042CEF2000288540BE000980001FB
:102140009DF8071001F00F014EF61452CEF2000276
:102150008854FFE702B0704781B00090009840F2C9
:10216000A071C2F200010860FFE740F2A070C2F265
:1021700000000068002801D0FFE7F6E701B07047D3
:1021800040F2A070C2F200000068002808D0FFE70B
:1021900040F2A070C2F20000016801390160FFE75F
:1021A0007047000010B58CB09C46964604468DF8EA
:1021B0002F000A918DF827208DF826309DF82F00EA
:1021C00040F22401C2F2000131F81000CDF820C025
:1021D000CDF81CE0069400F0E3FF9DF82F0040F2DC
:1021E0000001C2F2000131F8100000F0D9FF9DF8A3
:1021F0002F0040F23001C2F2000151F8201040F2ED
:102200006002C2F2000252F820301820032205902A
:102210000846059900F058F99DF82F0040F20C018E
:10222000C2F2000151F8200045F20001C4F20001A1
:10223000884215D1FFE740F2056000F0B1FF9DF83C
:102240002F0040F24801C2F2000151F8203041F263
:102250000040C4F201000421032200F035F915E02A
:102260009DF82F0040F23001C2F2000151F8201019
:1022700040F24802C2F2000252F820304820032205
:1022800004900846049900F01FF9FFE79DF82F001D
:1022900040F20C01C2F2000151F8200047F20001A7
:1022A000C4F20101884219D1FFE742F20000C0F2F6
:1022B0001C200121039100F0A1F848F20000C0F2B7
:1022C0001E20039900F09AF8002000F0B1FF47F2B9
:1022D0000000C4F2010001F0A5FDFFE79DF82F000A
:1022E00040F20C01C2F2000151F8200044F200411A
:1022F000C4F20001884205D1FFE70820012100F067
:10230000ADF9FFE79DF82F0040F20C01C2F2000189
:1023100051F82000029101F093FE9DF82F000299E0
:1023200051F820000A9901F08BFD9DF82F000299C9
:1023300051F8200000221146019202F03BF89DF86E
:102340002F00029951F82000019901F0D5FF9DF866
:102350002F00029951F82000019901F06FFF9DF8BC
:102360002F00029951F82000042101F093FF9DF8FD
:102370002F00029951F82000082101F0E9FF9DF893
:102380002F00029951F8200001F0C8FE4FF4E060E0
:1023900000F0AAFD9DF82F0040F21471C2F2000176
:1023A000085C9DF827109DF8262000F003FD9DF89D
:1023B0002F00029951F8200047F20002C4F20102F6
:1023C00090420CD1FFE79DF82F0040F20C01C2F2C1
:1023D000000151F82000052101F0BCFC0CE09DF843
:1023E0002F0040F20C01C2F2000151F8200040F22F
:1023F000053101F0CBFEFFE70CB010BD86B00A46F8
:1024000005908DF813100020039002900190009029
:102410000598000E3C21C4F2010151F82000019002
:102420000598C0F303400090BDF8140003909DF898
:102430001600C006002812D5FFE70098032101FA14
:1024400000F002900298059901F40011490C8840AF
:1024500002900298019921EA000001900AE0039895
:10246000059901F40011490C8840019921EA000006
:102470000190FFE79DF8130000280AD0FFE70398BA
:10248000059901F40011490C884001990843019015
:10249000FFE701980599090E3C22C4F2010242F8B7
:1024A000210006B07047000082B0019000910098B2
:1024B0000199486102B0704782B001900091009884
:1024C0000199086102B0704787B0069005910492A7
:1024D0000393002001900090059800F00F000190F8
:1024E0009DF81400C006002814D5FFE704980428BE
:1024F0000AD1FFE7019840F0030001900398069984
:10250000CA6B1043C86304E0049801990843019022
:10251000FFE7FFE70020ADF80A00FFE7BDF80A007B
:10252000072846D8FFE7BDF80A00039921FA00F012
:10253000C007002836D0FFE7069800680090BDF875
:102540000A0080000F2101FA00F0009921EA000042
:1025500000900198BDF80A1089008840009908434E
:102560000090059828280AD1FFE7BDF80A0001214C
:1025700001FA00F003990840069948610EE00598B9
:1025800048280AD1FFE7BDF80A00012101FA00F04E
:102590000399084006990861FFE7FFE7009806994C
:1025A0000860FFE7FFE7BDF80A000130ADF80A0058
:1025B000B4E70820ADF80A00FFE7BDF80A000F28CD
:1025C0004AD8FFE7BDF80A00039921FA00F0C007D6
:1025D00000283AD0FFE7069840680090BDF80A004E
:1025E0006FF01F0101EB80000F2202FA00F0009A49
:1025F00022EA000000900198BDF80A2001EB820158
:102600008840009908430090059828280AD1FFE7E0
:10261000BDF80A00012101FA00F00399084006996B
:1026200048610EE0059848280AD1FFE7BDF80A0086
:10263000012101FA00F00399084006990861FFE7BB
:10264000FFE7009806994860FFE7FFE7BDF80A003A
:102650000130ADF80A00B0E707B0704786B00A460F
:1026600005908DF8131000200390029001900090C7
:102670009DF817000006002806D5FFE71C20C4F2CD
:1026800001000068019005E00420C4F20100006828
:102690000190FFE70598C0F303400090BDF81400D7
:1026A0000390059800F44010B0F5401F0CD1FFE7EF
:1026B000019820F0E06001900420C4F2010001685C
:1026C00021F0E061016025E09DF81600C0060028B9
:1026D0000FD5FFE70098032101FA00F0029002985D
:1026E000019921EA00000190019840F0E06001901A
:1026F0000FE0039805996FF00F0202EA51418840FC
:10270000019921EA00000190019840F0E0600190F9
:10271000FFE7FFE79DF8130000280BD0FFE70398C1
:1027200005996FF00F0202EA514188400199084370
:102730000190FFE79DF817000006002806D5FFE787
:1027400001981C21C4F20101086005E001980421F0
:10275000C4F201010860FFE706B0704780B598B089
:1027600000201790099001F0FDF840F60460C2F2D5
:1027700000000999017040F60560C2F20000017086
:1027800040F29C70C2F200000122027044F2A010DC
:1027900042F210730890194607920693FEF7BAFFAB
:1027A00008980699FEF7F4FF0A210898FFF72CF81D
:1027B0000998ADF82A004FF4C06000F0F1FC4FF426
:1027C00016500999059008460599099A079BFFF745
:1027D000E9FC022307980599099AFFF7E3FC032017
:1027E00004230599099AFFF7DDFC00F05DFEFFE781
:1027F00040F2D770C2F200000078012840F07981E1
:10280000FFE740F6F850C2F200000078F8308DF88B
:10281000530040F6E050C2F200000068082840F083
:102820005C81FFE79DF8530040F2DD71C2F20001C8
:10283000085C012840F05181FFE700208DF85B0023
:10284000FFE79DF85B00072816DCFFE79DF85300C3
:10285000411C8DF8531040F2DD71C2F20001085C9A
:102860009DF85B100DF14B025054FFE79DF85B00A3
:1028700001308DF85B00E4E70DF14B00062100F01C
:1028800037FAADF830009DF851009DF8521040EA3B
:102890000120ADF82E00BDF83000BDF82E108842A2
:1028A00040F01A81FFE74FF48050ADF82C009DF8FE
:1028B0004C00032874D1FFE79DF84D009DF82D10C2
:1028C00088426DD1FFE79DF84E009DF850100844F6
:1028D0000F2865DCFFE701208DF8320003208DF81A
:1028E00033009DF84E1049008DF85A109DF8501095
:1028F00049008DF859109DF859108DF834108DF855
:102900005B00FFE79DF85B009DF85910033188429A
:1029100020DAFFE79DF85A00411C8DF85A1040F26A
:10292000B871C2F20001085C9DF85B200DF1320322
:1029300098549DF85A00421C8DF85A20085C9DF866
:102940005B1019444870FFE79DF85B0002308DF87A
:102950005B00D7E79DF859000330C1B20DF132009A
:10296000049000F0C5F9ADF82E00BDF82E009DF8DA
:102970005910049A1144C8709DF82F009DF8591001
:10298000114408719DF85900053040F24471C2F2BB
:10299000000108600A6800200499FEF797FA9AE09F
:1029A0009DF84C00062840F09580FFE79DF84D000B
:1029B0009DF82D10884240F08D80FFE79DF84E0075
:1029C0000C2800F38780FFE79DF84E000A28C0F22C
:1029D0008180FFE79DF84E0040008DF85A009DF879
:1029E0004F009DF85A104A1C8DF85A2040F2B872D8
:1029F000C2F2000250549DF850009DF85A104B1C32
:102A00008DF85A3050549DF84E000A280DD1FFE73A
:102A10009DF84F009DF8501041EA002040F24871A7
:102A2000C2F20001A1F84C001FE09DF84E000B28F7
:102A30000DD1FFE79DF84F009DF8501041EA0020AE
:102A400040F24871C2F20001A1F84E000CE09DF87E
:102A50004F009DF8501041EA002040F24871C2F248
:102A60000001A1F85000FFE7FFE700208DF85B00B0
:102A7000FFE79DF85B0007280FDCFFE79DF85B0090
:102A80000DF14B01095C0DF132021154FFE79DF885
:102A90005B0001308DF85B00EBE70020039000F055
:102AA00093FD40F2B870C2F2000014300622039980
:102AB00000F02CFC0A20FFF74FFB40F24470C2F2FA
:102AC00000000821016002680DF132010398FEF751
:102AD000FDF9FFE7FFE7FFE7FFE740F6E050C2F24E
:102AE00000000021016040F2D770C2F200000170C6
:102AF000FFE740F2D770C2F200004078012822D1EF
:102B0000FFE740F6E050C2F20000406888280ED18E
:102B1000FFE740F6F850C2F20000407878308DF8B8
:102B200054009DF854100120FEF75EF8FFE740F6D0
:102B3000E050C2F200000021416040F2D770C2F2C2
:102B400000004170FFE740F2D770C2F20000C07889
:102B5000012837D1FFE740F6E050C2F20000C0681C
:102B6000292823D1FFE740F6F850C2F20000C078D0
:102B7000D7308DF856009DF856100320FDF71CFE47
:102B800040F2D670C2F200000078002809D1FFE7B9
:102B9000FEF70AFB40F2D670C2F20000012101707C
:102BA00003E00120FEF744FAFFE7FFE740F6E050BC
:102BB000C2F200000021C16040F2D770C2F20000F2
:102BC000C170FFE740F60560C2F2000000780128FE
:102BD0007DD1FFE740F29C70C2F20000007801282E
:102BE0001BD1FFE740F21A71C2F20001012014224A
:102BF000FEF76CF93220FFF7AFFA40F6E050C2F270
:102C000000004068002807D1FFE740F29C70C2F244
:102C1000000000210170FFE7FFE740F22E71C2F2D1
:102C2000000103201422FEF751F940F60560C2F2BC
:102C30000000002101700520FFF78EFABDF82A0080
:102C40000130ADF82A00BDF82A00B0F5167F3DD15D
:102C5000FFE70020ADF82A00029000F0B5FC0298D2
:102C60008DF85B00FFE79DF85B00052814DCFFE7AB
:102C70009DF85B0040F2B871C2F200010144097D89
:102C800040F2AE72C2F200021154FFE79DF85B0001
:102C900001308DF85B00E6E740F24870C2F20000B8
:102CA000C17C40F2AE72C2F200029171418AD171D0
:102CB00090F83810117290F83900507200210A20F3
:102CC00001901046019A00F021FBFFE7FFE740F674
:102CD0000460C2F200000078012807D1FFE740F647
:102CE0000460C2F2000000210170FFE780E50000EF
:102CF00085B00A4604908DF80F104FF6FF700290D1
:102D000000200190FFE701989DF80F1088422ADA11
:102D1000FFE704980199405C02994840029008201E
:102D20000090FFE70098002818D0FFE79DF8080002
:102D3000C007002809D0FFE70298400802900298D7
:102D40004AF201014840029003E0029840080290D4
:102D5000FFE7FFE7009801380090E3E7FFE70198FD
:102D600001300190CFE7BDF8080005B070470000C2
:102D700082B00A460346ADF80400ADF80210BDF873
:102D80000400BDF80210884208DDFFE7BDF804002A
:102D9000BDF80210401AADF8060007E0BDF80200C9
:102DA000BDF80410401AADF80600FFE7BDF80600B4
:102DB00002B0704780B584B013468C4686468DF8C5
:102DC0000F008DF80E108DF80D200020029001905C
:102DD00000904EF60C50CEF20000006800F4E06067
:102DE000B0F5E06F05D1FFE70020019004200090CE
:102DF0004AE04EF60C50CEF20000006800F4E060AD
:102E0000B0F5C06F05D1FFE70120019003200090CD
:102E100039E04EF60C50CEF20000006800F4E0609D
:102E2000B0F5A06F04D1FFE702200190009029E0E7
:102E30004EF60C50CEF20000006800F4E060B0F5F1
:102E4000806F05D1FFE7032001900120009018E07A
:102E50004EF60C50CEF20000006800F4E060B0F5D1
:102E6000407F05D1FFE7042001900020009007E09B
:102E70004FF4A06000F038F8022001900090FFE7C6
:102E8000FFE7FFE7FFE7FFE79DF80E000199C1F1BB
:102E90000401884002909DF80D000099C1F10401E1
:102EA0000F2222FA01F10840029908430290029889
:102EB0000001029002989DF80F104EF20042CEF2EF
:102EC000000288549DF80F0000F01F01012202FA51
:102ED00001F14EF20012CEF2000242EAD00020F0E0
:102EE0000300016004B080BD81B000900098002113
:102EF000C0F2FA5108434EF60C51CEF200010860C0
:102F000001B0704782B001900091019800994FF68E
:102F10008072C1F6FF72114008434EF60851CEF29E
:102F200000010860BFF34F8F02B0704799B00146AF
:102F30008DF8630000201690119040F20672C0F6E2
:102F40000812099240F20122C0F20342089207904F
:102F50000690059204900392029041F20400C4F29C
:102F600002000068C0F381001790179800280190B4
:102F700008D0FFE7019801280AD0FFE7019802284E
:102F80000CD085E041F20020C0F27A00159085E077
:102F900041F20020C0F27A0015907FE041F2040077
:102FA000C4F20200006800F4803010901098B0F570
:102FB000803F2CD1FFE741F22C00C4F202000068F0
:102FC00000F080400F900F98002806D1FFE741F2F3
:102FD0000020C0F27A000C9005E046F60040C0F2F6
:102FE000DC200C90FFE741F20400C4F2020000680C
:102FF00000F400300E900E98B0F5003F06D1FFE7C8
:1030000040F60010C0F23D000C90FFE705E040F6EE
:103010000010C0F23D000C90FFE741F20400C4F242
:1030200002000168C1F383410D910068000100288E
:1030300005D5FFE70D9840F010000D90FFE741F235
:103040000400C4F2020000684000002805D5FFE734
:103050000D9840F020000D90FFE70D980E2804D841
:10306000FFE70D9802300D900CE00D980F2808D363
:10307000FFE70D98402804D8FFE70D9801300D9028
:10308000FFE7FFE70C980D9900FB01F0159005E0B4
:1030900041F20020C0F27A001590FFE741F20400EF
:1030A000C4F202000168C9B209090B910B9906AA82
:1030B000515C0A9115990A9AD14014910168C1F3A3
:1030C00002210B910B9904AA515C0A9114990A9A56
:1030D000D14013910068C0F3C2200B900B9802A955
:1030E000085C0A9014980A99C84012909DF86300F1
:1030F0000146042800914FD80099DFE801F003064B
:10310000090C0F001598169047E01498169044E0AB
:103110001398169041E0129816903EE041F2D400C8
:10312000C4F2020000688007002803D1FFE712986C
:1031300011902EE041F2D400C4F20200006800F0C9
:103140000300012803D1FFE71598119020E041F218
:10315000D400C4F20200006800F00300022804D189
:10316000FFE74FF40040119011E041F2D400C4F2A7
:103170000200006800F00300032806D1FFE741F2D7
:103180000020C0F27A00119000E0FFE7FFE7FFE7C0
:10319000FFE71198169000E0FFE7169819B0704706
:1031A00081B00146ADF80200BDF8020000F01F0238
:1031B000012303FA02F2800941F20003C4F2020380
:1031C00050F803C042EA0C02C25001B07047000040
:1031D00081B00146ADF80200BDF8020000F01F0208
:1031E000012303FA02F2800941F20003C4F2020350
:1031F00050F803C02CEA0202C25001B07047000030
:1032000081B00146ADF80200BDF8020000F01F02D7
:10321000012303FA02F2800941F20003C4F202031F
:1032200050F803C042EA0C02C25001B070470000DF
:1032300082B0019041F2D400C4F202000168009112
:10324000009921F0030100910099019A1143016056
:1032500002B0704782B00A460190ADF802100198A2
:10326000016841F400510160BDF802000199086154
:1032700002B0704781B000900098016841F04001B1
:10328000016001B07047000080B588B01346079018
:103290000691ADF8162040F60040C4F201004FF44C
:1032A00080510493FFF700F9032000F0BBF99DF86B
:1032B0001A100390084600F0B5F99DF81910029015
:1032C000084600F0AFF99DF818100190084600F08C
:1032D000A9F9FFE7BDF81600411EADF81610002849
:1032E00009D0FFE7A52000F09DF90799087007981D
:1032F00001300790EEE740F60040C4F201004FF4C1
:103300008051FFF7D9F808B080BD000080B584B0C7
:10331000134603900291ADF8062000208DF80500B9
:103320008DF804008DF803008DF802008DF801007F
:1033300002988DF803009DF80300C0F580708DF8A9
:1033400002009DF807008DF80500BDF806008DF815
:1033500004009DF8030000282CD1FFE79DF805002C
:10336000002807D1FFE703980299BDF8062000F076
:10337000E7F81EE0FFE79DF80500411E8DF80510F7
:1033800000280FD0FFE7039802994FF4807200F0F5
:10339000D7F8029800F580700290039800F58070CD
:1033A0000390E8E7039802999DF8042000F0C8F81C
:1033B000FFE776E09DF8050000282DD1FFE79DF896
:1033C00004009DF8021088421EDDFFE79DF804000E
:1033D0009DF80210401A8DF80100039802999DF89B
:1033E000022000F0ADF89DF8020002990844029016
:1033F0009DF80200039908440390039802999DF8F0
:10340000012000F09DF806E003980299BDF806201F
:1034100000F096F8FFE743E09DF80200BDF80610C3
:10342000081AADF806009DF807008DF80500BDF8F4
:1034300006008DF80400039802999DF8022000F020
:103440007FF89DF802000299084402909DF802005E
:10345000039908440390FFE79DF80500411E8DF88D
:10346000051000280FD0FFE7039802994FF48072EF
:1034700000F066F8029800F580700290039800F55D
:1034800080700390E8E79DF80400002807D0FFE76C
:10349000039802999DF8042000F052F8FFE7FFE737
:1034A000FFE704B080BD000080B58CB040F203603F
:1034B000FFF776FE40F20E70FFF772FE40F6004016
:1034C000C4F20100182103224FF420430490039218
:1034D000FEF7FAFF04214FF480430498039AFEF7A5
:1034E000F3FF10204FF48051049A02901046029B83
:1034F00001911946039A019BFEF7E6FF0498019992
:10350000FEF7DAFF002006904FF4827105910790D4
:103510000A904FF40071089102990B91099043F6BB
:103520000000C4F2000005A9009000F013F9072183
:103530000098FFF78FFE0098FFF79CFE0CB080BD4F
:1035400080B588B0134607900691ADF81620049315
:1035500000F0BEF840F60040C4F201004FF4805184
:10356000FEF7A2FF022000F05DF89DF81A1003900C
:10357000084600F057F89DF819100290084600F030
:1035800051F89DF818100190084600F04BF8FFE73D
:10359000BDF81600411EADF81610002808D0FFE750
:1035A0000798007800F03EF8079901310791EFE79E
:1035B00040F60040C4F201004FF48051FEF77CFF5A
:1035C00000F05EF808B080BD80B588B0079000F0CC
:1035D0007FF840F60040C4F201004FF4805106909D
:1035E0000591FEF761FF202000F01CF89DF81E10E9
:1035F0000490084600F016F89DF81D100390084648
:1036000000F010F89DF81C100290084600F00AF82F
:103610000699019008460599FEF74EFF00F030F834
:1036200008B080BD80B582B001468DF80700FFE785
:1036300043F60000C4F20000022100F075F80028F3
:1036400001D1FFE7F4E79DF8071043F60000C4F24C
:10365000000000F05DF8FFE743F60000C4F2000050
:10366000012100F061F8002801D1FFE7F4E743F6FB
:103670000000C4F2000000F043F8C0B202B080BD08
:1036800080B582B000208DF8070040F60040C4F2FB
:1036900001004FF48051FEF707FF0520FFF7C2FF3E
:1036A000FFE7A520FFF7BEFF8DF80700FFE79DF8B5
:1036B0000700C0070028F4D1FFE740F60040C4F23D
:1036C00001004FF48051FEF7F7FE02B080BD00000C
:1036D00080B584B040F60040C4F201004FF4805140
:1036E00003900291FEF7E0FE0620FFF79BFF03998F
:1036F000019008460299FEF7DFFE04B080BD00008D
:1037000081B000900098C06880B201B0704700009E
:1037100082B00A460190ADF80210BDF8020001998E
:10372000C86002B07047000083B00190009101981A
:1037300080680099084204D0FFE701208DF80B0053
:1037400003E000208DF80B00FFE79DF80B0003B0AD
:103750007047000083B00290019100200090029811
:1037600000680090009800F44150009001980068B3
:103770000099084300900198406800990843009020
:10378000019880680099084300900198C0680099EA
:10379000084300900198006900990843009001983F
:1037A0004069009908430090019880690099084396
:1037B00000900098029908600298C16921F40061A4
:1037C000C16103B07047000084B0002003900290F4
:1037D00041F20001C4F202010A6842F480320A6038
:1037E0000190FFE701980021B1EB103F05D1FFE701
:1037F000FFE7019801300190F4E7FFE703980130FB
:10380000039041F20000C4F20200006800F40030AE
:103810000290FFE7029800210028009108D1FFE7FD
:1038200003984FF6FF71401A18BF01200090FFE780
:103830000098C0070028E1D1FFE741F20000C4F280
:10384000020000688003002802D4FFE7FFE7FEE7DC
:1038500042F20000C4F202000168042262F3020195
:10386000016041F21C00C4F20200016841F0805185
:10387000016041F20400C4F20200016801600168C5
:103880000160016841F480610160016821F4403108
:103890000160016841F44031016001684FF6FF7238
:1038A000CBF2C3721140016001680022C4F224020D
:1038B0001143016041F20000C4F20200016841F0CE
:1038C00080710160FFE741F20000C4F2020000686D
:1038D0008001002801D4FFE7F5E747F20000C4F2B9
:1038E0000000016841F480310160FFE747F2040005
:1038F000C4F200000068C003002801D4FFE7F5E728
:1039000047F20000C4F20000016841F40031016098
:10391000FFE747F20400C4F20000006880030028BB
:1039200001D4FFE7F5E741F20400C4F202000168A8
:1039300021F003010160016841F002010160FFE72D
:1039400041F20400C4F20200006800F00C000828F4
:1039500001D0FFE7F4E704B07047000080B5FFF73F
:1039600033FF80BD80B582B040F21070C2F200001B
:10397000006844F6D351C1F26201A0FB010189093C
:1039800001900846FDF79CFD002802D0FFE7FFE705
:10399000FEE74FF0FF300021FEF7BCFB02B080BD18
:1039A00080B590B00F900F98B0F1804F0E9074D00A
:1039B000FFE740F20040C4F200000E99814275D04A
:1039C000FFE740F60000C4F200000E99814276D075
:1039D000FFE740F60040C4F200000E99814277D024
:1039E000FFE741F20000C4F200000E99814278D056
:1039F000FFE741F20040C4F200000E99814279D005
:103A0000FFE741F60000C4F200000E99814200F089
:103A10009E80FFE741F60040C4F200000E9981420B
:103A200000F09E80FFE742F20000C4F200000E9911
:103A3000814200F09E80FFE742F60040C4F20100A0
:103A40000E99814220D0FFE743F20040C4F201000A
:103A50000E99814257D0FFE744F60040C4F20100BE
:103A60000E99814258D0FFE745F20000C4F20100F0
:103A70000E99814259D0FFE745F20040C4F201009F
:103A80000E9981425AD07DE040F20B300D90FFF745
:103A9000B7FB0D98FFF79CFB75E04FF480600C902E
:103AA000FFF7AEFB0C98FFF793FB6CE040F2014090
:103AB0000B90FFF7A5FB0B98FFF78AFB63E040F242
:103AC00002400A90FFF79CFB0A98FFF781FB5AE03F
:103AD00040F203400990FFF793FB0998FFF778FB4A
:103AE00051E040F204400890FFF78AFB0898FFF786
:103AF0006FFB48E040F205400790FFF781FB079815
:103B0000FFF766FB3FE040F20D300690FFF778FBD1
:103B10000698FFF75DFB36E040F213300590FFF7A3
:103B20006FFB0598FFF754FB2DE04FF445700490B0
:103B3000FFF766FB0498FFF74BFB24E040F21530DB
:103B40000390FFF75DFB0398FFF742FB1BE040F299
:103B500006400290FFF754FB0298FFF739FB12E092
:103B600040F207400190FFF74BFB0198FFF730FB55
:103B700009E04FF481600090FFF742FB0098FFF7E7
:103B800027FB00E0FFE710B080BD000081B000908F
:103B90000098016841F00101016001B07047000028
:103BA00082B0019000910098008801998862019884
:103BB00042F60041C4F20101884225D0FFE7019896
:103BC000B0F1804F20D0FFE7019840F20041C4F2ED
:103BD0000001884218D0FFE7019840F60001C4F2C6
:103BE0000001884210D0FFE7019840F60041C4F27E
:103BF0000001884208D0FFE7019843F20041C4F277
:103C00000101884216D1FFE70198016821F0700197
:103C100001600098408800F0600001990A68104334
:103C200008600098808800F0100001990A6810432D
:103C30000860FFE7009880680199C862019841F226
:103C40000001C4F20001884216D0FFE7019841F25A
:103C50000041C4F2000188420ED0FFE701980168DC
:103C600021F4407101600098808900F4407001994E
:103C70000A6810430860FFE7019842F60041C4F269
:103C80000101884208D0FFE7019843F20041C4F2E5
:103C90000101884205D1FFE70098807B0199086304
:103CA000FFE70198416941F00101416102B07047AD
:103CB00082B00190009100980199CA681043C860D1
:103CC00002B0704782B0019000910098C043019902
:103CD000086102B07047000084B002900191029820
:103CE000C068019908400090029800690199084253
:103CF00008D0FFE70098002804D0FFE701208DF8E6
:103D00000F0003E000208DF80F00FFE79DF80F0083
:103D100004B0704783B00A460190ADF802100198D4
:103D2000BDF8021089094058BDF8021001F01F01CA
:103D3000C840C007002804D0FFE701208DF80B0021
:103D400003E000208DF80B00FFE79DF80B0003B0A7
:103D50007047000082B00A460190ADF80210BDF82D
:103D6000020000F01F01012303FA01F1019B800909
:103D700053F800C041EA0C01195002B0704700002E
:103D800082B001900091009843F20941C3F20F41C3
:103D9000884208D1FFE70198D0F8D01021F4004103
:103DA000C0F8D0100AE00098C0F30440012101FAE5
:103DB00000F001990A6A10430862FFE702B07047F9
:103DC00085B0039002910020019000900398BDF807
:103DD000081089094058029901F01F01012202FAD6
:103DE00001F10840019003980299890D4058029909
:103DF000C1F3044102FA01F1084000900098002844
:103E000008D0FFE70198002804D0FFE701208DF8D3
:103E1000130003E000208DF81300FFE79DF8130066
:103E200005B0704781B000900098016821F0010151
:103E300001600098816841F48051816001B0704751
:103E400080B588B0079006910020059004900390FB
:103E50000290079844F20041C4F2000188420190A8
:103E600032D0FFE744F60000C4F20000019981421D
:103E70002FD0FFE744F60040C4F2000001998142D0
:103E80002CD0FFE745F20000C4F200000199814206
:103E900029D0FFE743F60000C4F2010001998142F6
:103EA00008D0FFE747F20000C4F201000199814207
:103EB00005D01DE00320FFF739F8059019E0042034
:103EC000FFF734F8059014E00220FFF72FF8059073
:103ED0000FE00220FFF72AF805900AE00220FFF722
:103EE00025F8059005E00220FFF720F8059000E096
:103EF000FFE7079847F20001C4F20101884231D17F
:103F0000FFE7079800680004002812D5FFE705982E
:103F10004000069900EB5100B0FBF1F002900298CE
:103F20004FF6F071084004900298C0F342000390ED
:103F300010E00598069900EB5100B0FBF1F00290FB
:103F400002984FF6F07108400490029800F00F00BC
:103F50000390FFE7BDF81000BDF80C100843079967
:103F6000C86030E00798C0680004002812D5FFE759
:103F700005984000069900EB5100B0FBF1F002906B
:103F800002984FF6F071084004900298C0F3420086
:103F9000039010E00598069900EB5100B0FBF1F09A
:103FA000029002984FF6F07108400490029800F0D9
:103FB0000F000390FFE7BDF81000BDF80C10084398
:103FC00007998860FFE708B080BD000082B00090CC
:103FD000009847F20001C4F20101884207D1FFE7CF
:103FE0000098406A6FF35F20ADF8060006E0009885
:103FF00040686FF35F20ADF80600FFE7BDF80600EC
:1040000002B0704782B00A460190ADF802100198E4
:1040100047F20001C4F20101884207D1FFE7BDF871
:1040200002006FF35F200199886206E0BDF802008C
:104030006FF35F2001994860FFE702B0704700000E
:1040400080B588B00790079844F20041C4F200019F
:104050008842069031D0FFE744F60000C4F2000029
:104060000699814232D0FFE744F60040C4F20000D6
:10407000069981423CD0FFE745F20000C4F20000FF
:10408000069981423DD0FFE743F60000C4F20100EB
:104090000699814208D0FFE747F20000C4F2010010
:1040A000069981421BD035E040F20E300590FFF7B3
:1040B000A7F80598FFF78CF82DE040F21140049026
:1040C000FFF79EF80498FFF783F824E040F21240CF
:1040D0000390FFF795F80398FFF77AF81BE04FF489
:1040E00047700290FFF78CF80298FFF771F812E022
:1040F00040F213400190FFF783F80198FFF768F84A
:1041000009E040F214400090FFF77AF80098FFF7BA
:104110005FF800E0FFE708B080BD000081B00090CC
:10412000009847F20001C4F20101884206D1FFE77E
:104130000098016841F00101016005E00098C16844
:1041400041F40051C160FFE701B0704783B00A46F7
:104150000190ADF802100198BDF80210890940588D
:10416000BDF8021001F01F01C840C007002804D0AC
:10417000FFE701208DF80B0003E000208DF80B0015
:10418000FFE79DF80B0003B07047000082B00A46BD
:104190000190ADF80210BDF8020000F01F010123EC
:1041A00003FA01F1019B800953F800C041EA0C01B8
:1041B000195002B07047000082B001900091009841
:1041C000C0F30441012202FA01F1C943019A800DB2
:1041D000115002B07047000085B00390029100209A
:1041E000019000900398BDF8081089094058029981
:1041F00001F01F01012202FA01F108400190039829
:104200000299890D40580299C1F3044102FA01F163
:10421000084000900098002808D0FFE70198002887
:1042200004D0FFE701208DF8130003E000208DF893
:104230001300FFE79DF8130005B0704782B00190AE
:104240000091019847F20001C4F20101884212D1A5
:10425000FFE70198016821F0010101600198016800
:1042600021F4C0610160009800F4C06001990A68FF
:10427000104308600CE00198C16821F4C061C1607E
:10428000009800F4C0600199CA681043C860FFE755
:1042900002B0704783B00290019100200090029814
:1042A00047F20001C4F20101884211D1FFE70298F0
:1042B00000680090009820F004000090019800F041
:1042C000040000990843009000980299086010E0EB
:1042D0000298C0680090009820F0040000900198B7
:1042E00000F0040000990843009000980299C8600B
:1042F000FFE703B07047000082B001900091019881
:1043000047F20001C4F20101884212D1FFE701988F
:10431000016821F0010101600198416821F44051D8
:104320004160009800F4405001994A681043486089
:104330000CE00198016921F440510161009800F4FA
:10434000405001990A6910430861FFE702B07047C5
:1043500083B00290019100200090029847F2000182
:10436000C4F20101884211D1FFE702980068009071
:10437000009820F008000090019800F008000099D3
:104380000843009000980299086010E00298C06805
:104390000090009820F008000090019800F00800BC
:1043A00000990843009000980299C860FFE703B0A5
:1043B0007047000082B001900091019847F200011F
:1043C000C4F20101884212D1FFE70198016821F08F
:1043D000010101600198016821F480510160009899
:1043E00000F4805001990A68104308600CE00198BD
:1043F000C16821F48051C160009800F48050019997
:10440000CA681043C860FFE702B0704702E008C8FE
:10441000121F08C1002AFAD170477047002001E03E
:1044200001C1121F002AFBD1704700005044000850
:10443000000000204807000054070008B04A0008A8
:1044400048070020C80A00001C44000800000000C3
:1044500010170E0611071207130714071C06003861
:10446000014000440040004804124C041250043043
:104470000B7001400206050603060402130008241F
:10448000121404120C089210041304003911014292
:104490000804110F2300801020050200002018528C
:1044A00004044210281006ED0AE703EC0412EB04A2
:1044B0001014C30AE603A90AE3039E0AE103990A5A
:1044C000DF03960ADC041006DA03950AD80412D634
:1044D0000412D30412D10412CF0412CD0412CA0460
:1044E00012C80412C60412C40412C10412BF04127A
:1044F000BD0412BA0412B80412B60412B40412B104
:104500000412AF0412AD0412AB0412A8041006A6E4
:1045100003940AA40412A204129F04129D04129B85
:104520000412990412960412940412920412900434
:10453000128D04128B04128904128704128404124F
:10454000820412800410067E03930A7B041279040D
:10455000127704127504127204127004126E04129F
:104560006B0412690412670412650412620412607B
:1045700004125E04125C0412590410065703920AD6
:104580005504125304125004124E04124C04124AE1
:1045900004124704124504124304124104123E045B
:1045A000123C0410063A03910A38041235041233FF
:1045B00004123104122F04122C04122A04122804AB
:1045C00010062603900A2304122104121F04121D50
:1045D00004121A04121804121604121404121104FC
:1045E00010060F038F0A0D04120B041208041206A2
:1045F00004120404120218100AFF028F0AFD028E30
:104600000AFB0412F90412F60412F40412F2041262
:10461000F00412ED041006EB028D0AE90412E60420
:1046200012E40412E20412E00412DE0412DB0410AD
:1046300006D9028C0AD70412D40412D20412D00470
:1046400012CE0412CC0412C9041006C7028B0AC58C
:104650000412C20412C00412BE0412BC0412BA0432
:104660001006B7028A0AB50412B30412B10412AEDE
:104670000412AC0412AA0412A8041006A502890AA6
:10468000A30412A104129F04129C04129A0412980B
:104690000412960410069302880A9104128F0412E1
:1046A0008D04128A041288041286041284041006EF
:1046B0008102870A7F04127D04127B04127804129F
:1046C000760412740412720410066F02860A6D04D6
:1046D000126B04126904126604126404126204125A
:1046E000600410065D02850A5B0412590412570427
:1046F000125404125204125004124E0410064B02BB
:10470000840A490412470412450412420412400468
:10471000123E04123C0410063902830A3704123593
:1047200004123304123104122E04122C0410062A2F
:1047300002820A2704122504122304122104121EE5
:1047400004121C0410061A02810A1804121504121D
:104750001304121104120F04120D0410060A028031
:104760000A08041206041204041201101006FF01C4
:10477000800AFD041006FB017F0AF80412F60412F9
:10478000F40412F20412EF041006ED017E0AEB04A9
:1047900012E90412E60412E4041006E2017D0AE0C4
:1047A0000412DE0412DB0412D90412D7041006D559
:1047B000017C0AD20412D00412CE0412CC041006DA
:1047C000C9017B0AC70412C50412C30412C0041035
:1047D00006BE017A0ABC0412BA0412B70412B50468
:1047E0001006B301790AB10412AF0412AC0410062A
:1047F000AA01780AA80412A60412A30412A10410A4
:10480000069F01770A9D04129A04129804100696D6
:1048100001760A9404129204128F0410068D017519
:104820000A8B0412890410068601740A8404128219
:104830000412800410067D01730A7B0412790412AD
:10484000770410067401720A720412700410066E66
:1048500001710A6C0412690410066701700A65048C
:10486000126304100660016F0A5E04125C041006F5
:104870005A016E0A5704125504100653016D0A516D
:1048800004124F0410064C016C0A4A041006480139
:104890006B0A4604124404100641016A0A3F0410E0
:1048A000063D01690A3B0410063801680A36041205
:1048B000340410063201670A2F0410062D01660A1F
:1048C0002B0410062901650A270410062401640A36
:1048D000220410062001630A1E0410061C01620A4D
:1048E000190410061701610A1504100A1301600A61
:1048F00010015F0A0E0410060C015E0A0A0410067D
:1049000008015D0A0504101603015C0A01015B0A37
:10491000FF005B0AFD005A0AFA00590AF804100A5F
:10492000F600580AF400570AF204100AEF00560A7B
:10493000ED00550AEB041012E900540AE700530A8F
:10494000E400520AE200510AE004101ADE00500AA4
:10495000DB004F0AD9004E0AD7004D0AD5004C0A99
:10496000D3004B0AD0041012CE004A0ACC00490AE8
:10497000CA00480AC800470AC604100AC300460A0B
:10498000C100450ABF04100EBD00440ABB00430A23
:10499000B800420AB604100AB400410AB200400A44
:1049A000B004100AAD003F0AAB003E0AA904100E85
:1049B000A7003D0AA5003C0AA3003B0AA00410C5BD
:1049C0009E003A0A9C00390A9A00380A9800370A71
:1049D0009500360A9300350A9100330A8F00320A97
:1049E0008D00310A8A002F0A88002E0A86002B0AC1
:1049F00084002A0A8200270A8000250A7D00220AF4
:104A00007B001F0A79001C0A7700180A7500140A37
:104A10007300100A70000B0A6E00060A6C00010A8F
:104A20006A00FA096800F3096600EC096400E3090A
:104A30006200DB095F00D1095D00C6095B00BB09AC
:104A40005A00AF095900A209570091095500810980
:104A50005300710951005B094F0047094D003109AE
:104A60004B0015094900FB084700DE084500007AA5
:104A7000030A2526273435547E323030303436341C
:104A8000324530300B1C12464433370D2A53307CEC
:104A9000007C7C00087B0103E1061C0612C5C77D73
:104AA00023E40600040001000000000000000000F4
:04000005080001A14D
:00000001FF
